:020000040000FA
:060000000A128A110C280F
:10000800FE00030EF1000A08F2000A128A1167289E
:100018000A128A110F28F601F701F80183010A1262
:100028008A1116280A128A11C4200A128A1160300D
:100038000A128A11AA200A128A1183120313061BB4
:10004800262827284428F801F80AD030F500C930B6
:10005800F400F40B2D28F50B2D28322883120313F6
:10006800061F3728382843280808013E8800103022
:100078000806031D4028412843280F308800F8014E
:10008800861B472848282128F701F70AD030F500B1
:10009800C930F400F40B4E28F50B4E285328831270
:1000A8000313861F5828592862280808FF3E88002D
:1000B800080A031D6028612862288801F7012128A1
:1000C8000A128A110C28831203138C1D6C286D28C0
:1000D800A3281412141B712872287628941F7528D7
:1000E80076287E281308F0007008F600141394137D
:1000F8001416A12883160313941A83288428A12888
:10010800141D87288828A128831203131308F000D8
:100118007008F600831603131410831203130808DB
:1001280093001416A630F000F00B982800008316F0
:1001380003131418A028A1289B2883128C11720875
:100148008A00710E8300FE0E7E0E0900F30073080C
:100158008316031393003630831203139400803000
:1001680083160313940001309100871507168B1727
:100178000B17831203138C11831603138C150800B5
:100188008316031789018801831603138801C03079
:100198008600C030950081138312031385018801FE
:0601A8008B170B17080085
:04400E00F5E0FFFFDB
:00000001FF
