:020000040000FA
:100000000A128A11EF2F00308A000408840A82073E
:1000100000345334313420342034203420345334E9
:0E00200032342034203420345334333400344E
:100576000A128A11D7220A128A118316031311143A
:1005860008000A128A11D7220A128A118316031347
:10059600111508000A128A11D7220A128A11700848
:1005A6008312031393000800831603131419DC2A1D
:1005B600DD2AD72A11081F39031DE22AE32AD72A82
:1005C6000800F100831203138515710886000516CD
:1005D6000D30F000F00BED2A83120313051208000C
:1005E600F300F201731CF82AF92AFD2A7008F100BB
:1005F6007108F2070310F00D0310F30C7308031DC6
:10060600052B062BF52A720808000030F000F100D1
:100616000A128A113F230A128A110130F0000030B3
:10062600F1000A128A113F230A128A110730F500D7
:100636007D30F400F40B1D2BF50B1D2B08008316E3
:100646000317880189018316031385110512860194
:100656008801831203138501860188010030A300F7
:100666000130A2008630A100A030A0000A128A1133
:1006760004240A128A110800831203138511073015
:10068600F3007D30F200F20B462BF30B462B831260
:1006960003130516700886000730F3007D30F2005C
:1006A600F20B532BF30B532B831203130512073054
:1006B600F3007D30F200F20B5E2BF30B5E2B08008D
:1006C600F400F201F3017A2B7208740784000A120F
:1006D6008A1103200A128A110A128A11E4220A12C6
:1006E6008A110130F2070318F30A0030F307720883
:1006F600740784000A128A1103200A128A11003A2A
:10070600031D862B872B672B0800F401F501701C4F
:100716008D2B8E2B942B7208F4070318F50A730899
:10072600F50701300310F20DF30DFF3E031D952B67
:1007360001300310F10CF00CFF3E031D9C2B7008DA
:100746007104031DA72BA82B8A2B7508F1007408CA
:10075600F000080074037504031DB22BB32BC52BE0
:1007660076087F3EF80077080318013E003EF90040
:100776007908F1007808F0000A128A113F230A125C
:100786008A11D52B023074067504031DCB2BCC2B96
:10079600D52B7608BF3EF80077080318013E003EC9
:1007A600F900BB2B08000A128A11D7220A128A11F5
:1007B6008316031391150A128A11D7220A128A1177
:1007C600831203131308F200F3017208F40073088E
:1007D600F5000A128A11D7220A128A1170037104CF
:1007E600031DF62BF72BFB2B831603139112FE2BFF
:1007F60083160313911611167508F1007408F0009C
:100806000800283083120313940083160313910102
:10081600831203132008A4002108A5002208A600BD
:100826002308A70002300310A40DA50DA60DA70DE1
:10083600FF3E031D162C2708F3002608F2002508A4
:10084600F1002408F0000030F7007A30F60012308C
:10085600F5000030F4000A128A113C240A128A11AB
:100866007008FF3E8316031393009401871507163D
:1008760008000030FC000030FB000030FA000030B9
:10088600F900730872047104700403194B2C4C2C84
:10089600992CFD01FD0A5C2C0130F8000310F00DC7
:1008A600F10DF20DF30DF80B512C0130F80078081C
:1008B600FD07F31F5F2C602C4F2C0130F80003104E
:1008C600F90DFA0DFB0DFC0DF80B622C730877027F
:1008D600031D772C72087602031D772C71087502AA
:1008E600031D772C70087402031C7A2C7B2C8A2C2F
:1008F6007008F4027108031C710FF5027208031CDC
:10090600720FF6027308031C730FF7027914013095
:100916000310F30CF20CF10CF00CFF3E031D8B2CB4
:100926000130FD02031D982C992C602C7C08F300E5
:100936007B08F2007A08F1007908F00008001A3006
:10094600F500F830F400F40BA62CF50BA62C0000ED
:100956003030F0000030F1000A128A113F230A12EB
:100966008A110730F5007D30F400F40BB82CF50B36
:10097600B82C3030F0000030F1000A128A113F2303
:100986000A128A112130F400F40BC72C3030F00023
:100996000030F1000A128A113F230A128A1121300F
:1009A600F400F40BD42C3830F0000030F1000A12B9
:1009B6008A113F230A128A111130F400F40BE12C3C
:1009C60000000830F0000030F1000A128A113F23BF
:1009D6000A128A111130F400F40BEF2C00000130DA
:1009E600F0000030F1000A128A113F230A128A1120
:1009F6000630F5003030F400F40BFF2CF50BFF2C1D
:100A060000000630F0000030F1000A128A113F2380
:100A16000A128A111130F400F40B0F2D00000C306D
:100A2600F0000030F1000A128A113F230A128A11DF
:100A36001130F400F40B1D2D00000800F200782D93
:100A46003030F0007008F300B22D3130F00070083D
:100A5600F300B22D3230F0007008F300B22D3330BF
:100A6600F0007008F300B22D3430F0007008F30087
:100A7600B22D3530F0007008F300B22D3630F0009C
:100A86007008F300B22D3730F0007008F300B22D75
:100A96003830F0007008F300B22D3930F0007008DD
:100AA600F300B22D4130F0007008F300B22D423051
:100AB600F0007008F300B22D4330F0007008F30028
:100AC600B22D4430F0007008F300B22D4530F0002E
:100AD6007008F300B22D4630F0007008F300B22D16
:100AE600D630F0007008F300B22D7208F000F10164
:100AF6007108003A0319802D732D7008003A031906
:100B0600232D013A0319282D033A03192D2D013AF5
:100B16000319322D073A0319372D013A03193C2DD3
:100B2600033A0319412D013A0319462D0F3A0319C9
:100B36004B2D013A0319502D033A0319552D013A4D
:100B460003195A2D073A03195F2D013A0319642D2B
:100B5600033A0319692D013A03196E2D732D730893
:100B6600080083120313A000213084000630FF0022
:100B760083138001840AFF0BBB2D2008F800F901BE
:100B86007808F0007908F1007708FA00FB017A0886
:100B9600F2007B08F3000A128A1188230A128A11CE
:100BA600710883120313A8007008A700E92D210815
:100BB600013EA10022080318013E003EA20076086D
:100BC6002702A7002808031C2803A8007608F800B7
:100BD600F90179082802031DF22D78082702031867
:100BE600F52DF62DDA2D2808F1002708F0000A3039
:100BF600F2000030F3000A128A1188230A128A11C1
:100C0600710883120313A8007008A700192E230881
:100C1600013EA30024080318013E003EA400760806
:100C26002702A7002808031C2803A8007608F80056
:100C3600F90179082802031D222E780827020318D5
:100C4600252E262E0A2E2808F1002708F0000A3045
:100C5600F2000030F3000A128A1188230A128A1160
:100C6600710883120313A8007008A700492E2508EF
:100C7600013EA50026080318013E003EA6007608A0
:100C86002702A7002808031C2803A8007608F800F6
:100C9600F90179082802031D522E78082702031845
:100CA600552E562E3A2E213008000A128A1122237A
:100CB6000A128A110A128A11A2240A128A110A1227
:100CC6008A1108230A128A110130F4000030F50057
:100CD6000130F6000030F7000A128A11AD230A121D
:100CE6008A1101300A128A1163230A128A110A1222
:100CF6008A11BB220A128A115130F0000030F1002D
:100D06000A128A11CD220A128A110030F000F1006F
:100D16000A128A11D6230A128A1170088312031343
:100D2600A9002908B5000A128A11C4220A128A11DA
:100D36001A3083120313AA00F730A900A90BA12EBB
:100D4600AA0BA12EA62E0A128A11BB220A128A11FA
:100D56006130F0000030F1000A128A11CD220A1229
:100D66008A110030F000F1000A128A11D6230A1205
:100D76008A1170088312031388000A128A11C4228A
:100D86000A128A111A3083120313AA00F730A90037
:100D9600A90BCB2EAA0BCB2ED02E83120313080839
:100DA600A9002908B4000A128A11BB220A128A1164
:100DB6007130F0000030F1000A128A11CD220A12B9
:100DC6008A110030F000F1000A128A11D6230A12A5
:100DD6008A11700883120313A9002908B6000A12A3
:100DE6008A11C4220A128A111A3083120313AA0026
:100DF600F730A900A90BFD2EAA0BFD2E022F0A30F3
:100E060083120313A9002908F00036080A128A1172
:100E1600F3220A128A1183120313AA002A08B600C3
:100E2600FF30A9002908F6000530AA002A08F700B5
:100E360035080A128A11B4250A128A11831203137D
:100E4600AB002B08B3000230F4000030F50001308F
:100E5600F6000030F7000A128A11AD230A128A1131
:100E66008312031333088400831300080A128A11BD
:100E760021250A128A110A128A11E4220A128A11FB
:100E86002E300A128A11E4220A128A1183120313DF
:100E96003308023E8400831300080A128A112125B2
:100EA6000A128A110A128A11E4220A128A1183127C
:100EB60003133308043E8400831300080A128A11C0
:100EC60021250A128A110A128A11E4220A128A11AB
:100ED60056300A128A11E4220A128A110230F400EC
:100EE6000030F5000730F6000030F7000A128A11CC
:100EF600AD230A128A118312031334080A128A11C7
:100F060021250A128A110A128A11E4220A128A116A
:100F1600FF3083120313A9002908F6000530AA0042
:100F26002A08F70036080A128A11B4250A128A110D
:100F360083120313AB002B08B2000230F40000301A
:100F4600F5000C30F6000030F7000A128A11AD23C6
:100F56000A128A11831203133208840083130008CD
:100F66000A128A1121250A128A110A128A11E4220A
:100F76000A128A11831203133208023E8400831375
:100F860000080A128A1121250A128A110A128A11E8
:100F9600E4220A128A112E300A128A11E4220A1257
:100FA6008A11831203133208043E84008313000857
:100FB6000A128A1121250A128A110A128A11E422BA
:100FC6000A128A1143300A128A11E4220A128A117D
:100FD6007A2E0A128A11002883120313AC01AD017E
:100FE600AE01AF01B001B101B201B301B401B50167
:0A0FF600B60183010A128A11582E79
:04400E00D5E0FFFFFB
:00000001FF
