:020000040000FA
:100000000A128A11F12F00308A000408840A82073C
:1000100000345334313420342034203420345334E9
:0E00200032342034203420345334333400344E
:1006DE000A128A118B230A128A118316031311141C
:1006EE0008000A128A118B230A128A118316031329
:1006FE00111508000A128A118B230A128A1170082A
:10070E008312031393000800831603131419902BFE
:10071E00912B8B2B11081F39031D962B972B8B2B8F
:10072E000800F10083120313851571088600051663
:10073E000D30F000F00BA12B8312031305120800ED
:10074E000030F000F1000A128A11DE230A128A111B
:10075E000130F0000030F1000A128A11DE230A1275
:10076E008A110730F5007D30F400F40BBC2BF50B2D
:10077E00BC2B080083160317880189018316031307
:10078E0085110512860188018312031385018601E6
:10079E0088010030A3000130A2008630A100A030F5
:1007AE00A0000A128A11A3240A128A1108008312C9
:1007BE00031385110730F3007D30F200F20BE52BA9
:1007CE00F30BE52B83120313051670088600073012
:1007DE00F3007D30F200F20BF22BF30BF22B8312AF
:1007EE00031305120730F3007D30F200F20BFD2BE0
:1007FE00F30BFD2B0800F400F201F301192C720823
:10080E00740784000A128A1103200A128A110A122E
:10081E008A1198230A128A110130F2070318F30A7B
:10082E000030F3077208740784000A128A1103203D
:10083E000A128A11003A031D252C262C062C0800BC
:10084E00F401F501701C2C2C2D2C332C7208F4079E
:10085E000318F50A7308F50701300310F20DF30DB6
:10086E00FF3E031D342C01300310F10CF00CFF3E43
:10087E00031D3B2C70087104031D462C472C292C9C
:10088E007508F1007408F000080074037504031D68
:10089E00512C522C642C76087F3EF80077080318F2
:1008AE00013E003EF9007908F1007808F0000A12C6
:1008BE008A11DE230A128A11742C02307406750412
:1008CE00031D6A2C6B2C742C7608BF3EF80077083B
:1008DE000318013E003EF9005A2C08000A128A1134
:1008EE008B230A128A118316031391150A128A1189
:1008FE008B230A128A11831203131308F200F301D9
:10090E007208F4007308F5000A128A118B230A127A
:10091E008A1170037104031D952C962C9A2C831644
:10092E00031391129D2C831603139116111675083D
:10093E00F1007408F00008002830831203139400AD
:10094E00831603139101831203132008A4002108B8
:10095E00A5002208A6002308A70002300310A40D4C
:10096E00A50DA60DA70DFF3E031DB52C2708F30000
:10097E002608F2002508F1002408F0000030F700E8
:10098E007A30F6001230F5000030F4000A128A11A7
:10099E00DB240A128A117008FF3E8316031393009C
:1009AE0094018715071608000030FC000030FB008C
:1009BE000030FA000030F9007308720471047004FC
:1009CE000319EA2CEB2C382DFD01FD0AFB2C01300E
:1009DE00F8000310F00DF10DF20DF30DF80BF02CE5
:1009EE000130F8007808FD07F31FFE2CFF2CEE2CCB
:1009FE000130F8000310F90DFA0DFB0DFC0DF80B8C
:100A0E00012D73087702031D162D72087602031D41
:100A1E00162D71087502031D162D70087402031C25
:100A2E00192D1A2D292D7008F4027108031C710F4F
:100A3E00F5027208031C720FF6027308031C730F83
:100A4E00F702791401300310F30CF20CF10CF00CD8
:100A5E00FF3E031D2A2D0130FD02031D372D382DBB
:100A6E00FF2C7C08F3007B08F2007A08F10079086D
:100A7E00F00008001A30F500F830F400F40B452DA4
:100A8E00F50B452D00003030F0000030F1000A1259
:100A9E008A11DE230A128A110730F5007D30F40028
:100AAE00F40B572DF50B572D3030F0000030F100C0
:100ABE000A128A11DE230A128A112130F400F40B75
:100ACE00662D3030F0000030F1000A128A11DE235C
:100ADE000A128A112130F400F40B732D3830F00015
:100AEE000030F1000A128A11DE230A128A11113027
:100AFE00F400F40B802D00000830F0000030F100FF
:100B0E000A128A11DE230A128A111130F400F40B34
:100B1E008E2D00000130F0000030F1000A128A1113
:100B2E00DE230A128A110630F5003030F400F40B81
:100B3E009E2DF50B9E2D00000630F0000030F100CA
:100B4E000A128A11DE230A128A111130F400F40BF4
:100B5E00AE2D00000C30F0000030F1000A128A11A8
:100B6E00DE230A128A111130F400F40BBC2D0000A2
:100B7E000800F200172E3030F0007008F300512EEE
:100B8E003130F0007008F300512E3230F000700852
:100B9E00F300512E3330F0007008F300512E343034
:100BAE00F0007008F300512E3530F0007008F3009D
:100BBE00512E3630F0007008F300512E3730F00011
:100BCE007008F300512E3830F0007008F300512EEB
:100BDE003930F0007008F300512E4130F0007008EB
:100BEE00F300512E4230F0007008F300512E4330C6
:100BFE00F0007008F300512E4430F0007008F3003E
:100C0E00512E4530F0007008F300512E4630F000A2
:100C1E007008F300512ED630F0007008F300512EFC
:100C2E007208F000F1017108003A03191F2E122EFE
:100C3E007008003A0319C22D013A0319C72D033A61
:100C4E000319CC2D013A0319D12D073A0319D62DCC
:100C5E00013A0319DB2D033A0319E02D013A03196A
:100C6E00E52D0F3A0319EA2D013A0319EF2D033A38
:100C7E000319F42D013A0319F92D073A0319FE2D24
:100C8E00013A0319032E033A0319082E013A0319E8
:100C9E000D2E122E7308080083120313A0002130AC
:100CAE0084000630FF0083138001840AFF0B5A2E46
:100CBE002008F800F9017808F0007908F1007708AB
:100CCE00FA00FB017A08F2007B08F3000A128A117F
:100CDE0027240A128A11710883120313A8007008C0
:100CEE00A700882E2108013EA10022080318013E0C
:100CFE00003EA20076082702A7002808031C28033E
:100D0E00A8007608F800F90179082802031D912E33
:100D1E00780827020318942E952E792E2808F100B4
:100D2E002708F0000A30F2000030F3000A128A1190
:100D3E0027240A128A11710883120313A80070085F
:100D4E00A700B82E2308013EA30024080318013E75
:100D5E00003EA40076082702A7002808031C2803DB
:100D6E00A8007608F800F90179082802031DC12EA3
:100D7E00780827020318C42EC52EA92E2808F100C4
:100D8E002708F0000A30F2000030F3000A128A1130
:100D9E0027240A128A11710883120313A8007008FF
:100DAE00A700E82E2508013EA50026080318013EDF
:100DBE00003EA60076082702A7002808031C280379
:100DCE00A8007608F800F90179082802031DF12E13
:100DDE00780827020318F42EF52ED92E213008009C
:100DEE000A128A11C1230A128A110A128A11412586
:100DFE000A128A110A128A11A7230A128A110130C5
:100E0E00F4000030F5000130F6000030F7000A1251
:100E1E008A114C240A128A1101300A128A110224F4
:100E2E000A128A110A128A116F230A128A1151307C
:100E3E00F0000030F1000A128A1181230A128A1181
:100E4E000030F000F1000A128A1175240A128A117C
:100E5E00700883120313A9002908B4000A128A111C
:100E6E0078230A128A111A3083120313AA00F7305C
:100E7E00A900A90B402FAA0B402F452F0A128A1149
:100E8E006F230A128A116130F0000030F1000A124D
:100E9E008A1181230A128A110030F000F1000A1221
:100EAE008A1175240A128A1170088312031388009E
:100EBE000A128A1178230A128A111A308312031326
:100ECE00AA00F730A900A90B6A2FAA0B6A2F6F2F61
:100EDE00831203130808A9002908B300FF30A900E4
:100EEE002908F6000530AA002A08F70034080A126D
:100EFE008A1153260A128A1183120313AB002B0890
:100F0E00B2000230F4000030F5000130F60000307F
:100F1E00F7000A128A114C240A128A118312031343
:100F2E0032088400831300080A128A11C0250A129F
:100F3E008A110A128A1198230A128A112E300A1265
:100F4E008A1198230A128A11831203133208023E61
:100F5E008400831300080A128A11C0250A128A110E
:100F6E000A128A1198230A128A1183120313320865
:100F7E00043E8400831300080A128A11C0250A1247
:100F8E008A110A128A1198230A128A1156300A12ED
:100F9E008A1198230A128A110230F4000030F500EB
:100FAE000730F6000030F7000A128A114C240A129C
:100FBE008A118312031333080A128A11C0250A12EA
:100FCE008A110A128A1198230A128A11192F0A12EB
:100FDE008A11002883120313AC01AD01AE01AF01DB
:100FEE00B001B101B201B301B40183010A128A1139
:020FFE00F72ECC
:04400E00D5E0FFFFFB
:00000001FF
