:020000040000FA
:060000000A128A110C280F
:10000800FE00030EF1000A08F2000A128A11B32852
:100018000A128A110F28F801F90183010A128A11BC
:10002800F628F500831203139F131F1770289F12D9
:100038001F129F111F11AA289F121F129F111F150F
:10004800AA289F121F129F151F11AA289F121F125C
:100058009F151F15AA289F121F169F111F11AA2846
:100068009F121F169F111F15AA289F121F169F1552
:100078001F11AA289F121F169F151F15AA289F1621
:100088001F129F111F11AA289F161F129F111F15BB
:10009800AA289F161F129F151F11AA289F161F1204
:1000A8009F151F15AA289F161F169F111F11AA28F2
:1000B8009F161F169F111F15AA289F161F169F15FA
:1000C8001F11AA289F161F169F151F15AA289F12D1
:1000D8001F129F111F11AA287508F300F401740854
:1000E800003A031978286B287308003A03191B286B
:1000F800013A03192028033A03192528013A03195C
:100108002A28073A03192F28013A03193428033AF1
:1001180003193928013A03193E280F3A03194328CD
:10012800013A03194828033A03194D28013A0319DB
:100138005228073A03195728013A03195C28033A49
:1001480003196128013A031966286B2883160313DB
:100158009F139F121F12831203131F140800831288
:1001680003138C1DB828B928EF281412141BBD28B6
:10017800BE28C228941FC128C228CA281308F00024
:100188007008F800141394131416ED28831603133B
:10019800941ACF28D028ED28141DD328D428ED2868
:1001A800831203131308F0007008F8008316031372
:1001B800141079088312031393001416A630F00064
:1001C800F00BE4280000831603131418EC28ED281C
:1001D800E72883128C1172088A00710E8300FE0EC4
:1001E8007E0E09000A128A1138210A128A1150302B
:1001F8000A128A111E210A128A1100300A128A1163
:1002080015200A128A11831203130C139F141E0857
:10021800F6007608F900790886000D30F700FB3003
:10022800F600F60B1529F70B15291A2901290A12C8
:100238008A110C28F30073088316031393003630D1
:100248008312031394008030831603139400013043
:100258009100871507168B170B17831203138C1140
:10026800831603138C1508000130831603138500C9
:10027800013083160317880083160313860183163B
:1002880003178901831603139F0183120313850142
:0802980086018B170B1708000B
:04400E00F5E0FFFFDB
:00000001FF
